:020000040000fa
:080000000001040000000000f3
:020000040000fa
:0400080004020000ee
:020000040000fa
:04000c0004020000ea
:020000040000fa
:0400100004020000e6
:020000040000fa
:0400140004020000e2
:020000040000fa
:0400180004020000de
:020000040000fa
:04001c0004020000da
:020000040000fa
:0400200004020000d6
:020000040000fa
:0400240004020000d2
:020000040000fa
:0400280004020000ce
:020000040000fa
:04002c0004020000ca
:020000040000fa
:0400300004020000c6
:020000040000fa
:0400340004020000c2
:020000040000fa
:0400380004020000be
:020000040000fa
:04003c0004020000ba
:020000040000fa
:0400400004020000b6
:020000040000fa
:0400440004020000b2
:020000040000fa
:0400480004020000ae
:020000040000fa
:04004c0004020000aa
:020000040000fa
:0400500004020000a6
:020000040000fa
:0400540004020000a2
:020000040000fa
:04005800040200009e
:020000040000fa
:04005c00040200009a
:020000040000fa
:040060000402000096
:020000040000fa
:040064000402000092
:020000040000fa
:04006800040200008e
:020000040000fa
:04006c00040200008a
:020000040000fa
:040070000402000086
:020000040000fa
:040074000402000082
:020000040000fa
:04007800040200007e
:020000040000fa
:04007c00040200007a
:020000040000fa
:040080000402000076
:020000040000fa
:040084000402000072
:020000040000fa
:04008800040200006e
:020000040000fa
:04008c00040200006a
:020000040000fa
:040090000402000066
:020000040000fa
:040094000402000062
:020000040000fa
:04009800040200005e
:020000040000fa
:04009c00040200005a
:020000040000fa
:0400a0000402000056
:020000040000fa
:0400a4000402000052
:020000040000fa
:0400a800040200004e
:020000040000fa
:0400ac00040200004a
:020000040000fa
:0400b0000402000046
:020000040000fa
:0400b4000402000042
:020000040000fa
:0400b800040200003e
:020000040000fa
:0400bc00040200003a
:020000040000fa
:0400c0000402000036
:020000040000fa
:0400c4000402000032
:020000040000fa
:0400c800040200002e
:020000040000fa
:0400cc00040200002a
:020000040000fa
:0400d0000402000026
:020000040000fa
:0400d4000402000022
:020000040000fa
:0400d800040200001e
:020000040000fa
:0401080004020000ed
:020000040000fa
:04010c0004020000e9
:020000040000fa
:0401100004020000e5
:020000040000fa
:0401140004020000e1
:020000040000fa
:0401180004020000dd
:020000040000fa
:04011c0004020000d9
:020000040000fa
:0401200004020000d5
:020000040000fa
:0401240004020000d1
:020000040000fa
:0401280004020000cd
:020000040000fa
:04012c0004020000c9
:020000040000fa
:0401300004020000c5
:020000040000fa
:0401340004020000c1
:020000040000fa
:0401380004020000bd
:020000040000fa
:04013c0004020000b9
:020000040000fa
:0401400004020000b5
:020000040000fa
:0401440004020000b1
:020000040000fa
:0401480004020000ad
:020000040000fa
:04014c0004020000a9
:020000040000fa
:0401500004020000a5
:020000040000fa
:0401540004020000a1
:020000040000fa
:04015800040200009d
:020000040000fa
:04015c000402000099
:020000040000fa
:040160000402000095
:020000040000fa
:040164000402000091
:020000040000fa
:04016800040200008d
:020000040000fa
:04016c000402000089
:020000040000fa
:040170000402000085
:020000040000fa
:040174000402000081
:020000040000fa
:04017800040200007d
:020000040000fa
:04017c000402000079
:020000040000fa
:040180000402000075
:020000040000fa
:040184000402000071
:020000040000fa
:04018800040200006d
:020000040000fa
:04018c000402000069
:020000040000fa
:040190000402000065
:020000040000fa
:040194000402000061
:020000040000fa
:04019800040200005d
:020000040000fa
:04019c000402000059
:020000040000fa
:0401a0000402000055
:020000040000fa
:0401a4000402000051
:020000040000fa
:0401a800040200004d
:020000040000fa
:0401ac000402000049
:020000040000fa
:0401b0000402000045
:020000040000fa
:0401b4000402000041
:020000040000fa
:0401b800040200003d
:020000040000fa
:0401bc000402000039
:020000040000fa
:0401c0000402000035
:020000040000fa
:0401c4000402000031
:020000040000fa
:0401c800040200002d
:020000040000fa
:0401cc000402000029
:020000040000fa
:0401d0000402000025
:020000040000fa
:0401d4000402000021
:020000040000fa
:0401d800040200001d
:020000040000fa
:100200008fdd20000eff20000e018800000000009e
:10021000000020000000e000020032000001200089
:100220002002880014000700b90007000000e00069
:1002300003003a00209c2400010020000200370047
:100240000000200001002000810f7000010032003a
:1002500014000700000020000000e000020032004f
:100260000000020000000000a6490200000000009b
:100270000040da000000fe004440a9000000200019
:100280000000e0000300320000002000a001880010
:100290004440a800000006008a1f78008b1f7800e9
:1002a0000000060091018800800478000000eb0047
:1002b0001a003700e284440032a0b4009905ba0065
:1002c000e284440032a0b4009906ba00e2844400fb
:1002d00032a0b4000006eb00476fde00fd07b2005d
:1002e000636ce10003003a00ebff07000000eb0045
:1002f0000a003700606ce10004003a00005deb008a
:100300008b05e900fdff3e00040037006168e10055
:10031000010032000086eb000b00070019c7ba008d
:100320001905ba000e04e00003003a000a00e000dc
:10033000e0ff3a0000000600fe07b2009e018800c0
:100340008a047800f5ff3700395dba008b05e900b3
:100350000c003200295dba008b05e900080032006c
:100360000c00e00003003a00e284440032a0b40034
:10037000f5ff370019ddba008b05e900faff3a00f6
:100380008904e800e184440032a0b40000000600c3
:10039000000000000000000000000000000000005d
:1003a000000000000000000000000000000000004d
:1003b000000000000000000000000000000000003d
:1003c000000000000000000000000000000000002d
:1003d000000000000000000000000000000000001d
:1003e000000000000000000000000000000000000d
:1003f00000000000000000000000000000000000fd
:1004000000000000000000000040da000000fe00d4
:100410000a00fa0051002000b1bf9f00c0bf9f003a
:100420006a805700b90207005fb897000080fa00a1
:1004300000000600889fbe0080047800b06e800037
:100440000000e00004003a000e0007000084eb000a
:100450000000e00008003500b86e80000900e000f0
:100460000500320009004400060007000000e0001b
:1004700001003d000084eb00080078004f04be003e
:1004800000000600800078000100e00003003a0050
:1004900000002000b06e8800000005000080eb0026
:1004a00002002000828f500002003e00b16e8800e2
:1004b0000000eb00000006000011800061406000b9
:1004c00000000600101188000111880000000600dd
:1004d0000080eb002002ab000700320020c2a90020
:1004e0002342ab0002003200201180000000060011
:1004f00020118000f00fb200000006002342ab0084
:1005000001003a00f00fb200201188000000060040
:1005100000000500a1cf2000420007008000780005
:100520000080eb000100e00004003500a1cf2000b6
:10053000a0002000140007004f80de00000006002d
:10054000020037000304e0000600320000017800da
:1005500002007800b041780081cf5100f9ff3a00e5
:10056000010037000001eb000200780000000600e7
:1005700000017800b1417800035978000304e000dd
:10058000fcff3a0000000600889fbe008a1f78002a
:100590000004be00c900900069009000808f5000e8
:1005a0000600390009007800bd00070080007800cf
:1005b0000080eb000100e0001700350008457800de
:1005c0004900900008587800c0049800190078008d
:1005d00000b8a30004003a0000a8a30008003200fd
:1005e000ea4f540006003a00090078004c01070069
:1005f000800078000080eb000100e00006003a0077
:1006000000c0200019006000020032004900900084
:10061000e00498000a80fb004f0578004f04be00fc
:1006200000000600889fbe008a9fbe008c1f7800d5
:1006300080047800010478002f003700c800900083
:1006400068009000808f5000040039000800780096
:10065000930007000000e0003a0035000040200051
:10066000180060000a003200a10020000900780094
:100670007a000700000678000c00e0000400320059
:10068000618514000a054600cfd5de00040037005e
:1006900009007800460007000005be000006eb00d8
:1006a000480090006801900000015100cf91de00e9
:1006b0008a0f51008b8f5900020031000205be00e5
:1006c0000006eb000a01be00890078002200070046
:1006d000480090000a004000400498000c00e00030
:1006e00004003200080078000d0107000000e0005f
:1006f00014003a008a8444001904e000cfff3a0055
:100700000080200018006000060032000800780019
:1007100003010700800078000080eb000100e0008a
:1007200009003a0001c02000988060000000eb0042
:100730000500320048009000600498000000eb00c3
:10074000010037000080eb004f0678004f05be0027
:100750004f04be00000006000202be008001eb0054
:100760000400370061f0790061025200e0825a0013
:100770008301e800e00f5200e08f5a00f9ff3a00d1
:10078000000006000202be008001eb0004003700fa
:1007900001f0790061025200e0825a008301e80012
:1007a000e00f5200e08f5a00f9ff3a000000060007
:1007b000800078000000eb00610ab8006101b80019
:1007c000040341000000e800644179000204e000f5
:1007d000f9ff3a0001005300cf80de000000060060
:1007e000889fbe008a1f78000002eb0004003700db
:1007f00005737c0061015100e08159000402e800aa
:100800006104b8006123b80008054300e00f5100ff
:10081000e08f590002003a008000eb000900370029
:10082000e1427b000504e000f1ff3a00faff3700e7
:100830000043eb0086707d0061015100e0815900aa
:100840008100e800e00f5100e08f5900f8ff3a0006
:100850004f0578004f04be0000000600889fbe00d0
:100860000001eb00820178006103b8006112b8005a
:100870000404430085844b0066427a00814f520095
:1008800001003a00880178000201e8000404e00059
:10089000f5ff3a00030078004f04be000000060098
:1008a000889fbe008a1f780000047800c80090006e
:1008b000680190000000eb00828f50003d0039007d
:1008c000180078002200290002016000e20f5100a8
:1008d00007003200012024000000e00001003d007c
:1008e00001202000008c70000080eb0031003700f8
:1008f0000200260002006000820f500009003a004a
:1009000038009000808f5000060039000800780001
:1009100083000700800078000080eb000100e00009
:1009200024003a001805780000c02000000065008f
:1009300019003a00a804900060022000080040005e
:10094000808f540014003a00002020000100200095
:100950002b010700200498000000e00005003a0089
:1009600029049800490498008904e8003904980093
:10097000080037000a60a0000a0c780040049800c4
:10098000012020008080400031049800400c980035
:10099000500c98000c0007002800900050049800ac
:1009a000380090006004980000002600180c7000c9
:1009b0000000eb004f0578004f04be000000060069
:1009c000a057200091003700881f780048dd2000e4
:1009d0001804e00003003a00f9ff070020c0b3004c
:1009e000004c78004f04780000000600889fbe008d
:1009f00000047800080078004900070080047800af
:100a0000000420001800600002003200280090005e
:100a10008a0007000000eb00200498003840900096
:100a20000004e000050035000000fb00aa0c0700f0
:100a30000000e000010032008084eb0018109000fc
:100a40000000e0000800320071fe07000000e00036
:100a5000010032008084eb0018109000770007003e
:100a60000000eb001014980000082000180060003f
:100a70000f00320081d420000000eb00d10f1400e1
:100a800005003a0000004000a1d420000080400092
:100a90000008eb00030037000000e800e80f5000fa
:100aa000f6ff3a0008007800640007000e003700e7
:100ab000000c780000c0eb00304498006002200079
:100ac000080040002004980040049800500498005a
:100ad000400c980060049800500c98007004980036
:100ae00076004400000c9800090078004f04be0016
:100af00000000600889fbe00a8d52000f004540026
:100b0000480078000000e00001003200b7ff070055
:100b1000890f5400faff3a004f04be00000006009f
:100b2000889fbe008a1f7800000478000800e0005b
:100b30000d003a0088d42000700544008004eb00ca
:100b4000580078000000e00004003200f4ff0700c5
:100b50000000e00001003d008084eb008a0f54009b
:100b6000f7ff3a002500370000002200180060005f
:100b70008004eb0021003200a80490000f00370031
:100b800009015100384090000000fb008900780006
:100b9000bc2007000000e00007003c002800900097
:100ba0004004980060049800500c98001890a00031
:100bb0008084eb00110037008084440048019000dd
:100bc000828f5400eeff3900280090004004980006
:100bd0009800780002c020000281600001003a0005
:100be0003800900001e8a300020032006004980081
:100bf00001003700500c98008004eb0009007800d9
:100c00004f0578004f04be000000060001002000e0
:100c10000100e00008003200010080000100e00057
:100c2000050032008100e900010088008180400059
:100c30000200800000b17800000006000000e00023
:100c4000320032004002be00e50f5200e08f5a0031
:100c50002e0036000408a3002c003a00916e80009c
:100c60000100e00002003200810f5000040031005a
:100c700021009800906e88001700370082007800ed
:100c8000210190000200e00002003200800f5100bc
:100c9000faff39001103be0086814000830f500027
:100ca0001a003900808f510004003a008418430074
:100cb00085904b0001007800070037000200e0003b
:100cc0000300320004024000840f51000f0039007d
:100cd00022009800a0009800a00090000100e00011
:100ce0000a00320010014000828f500007003a00d5
:100cf00002dd20000009eb001001be0031184100a8
:100d000021904900a10090002100980000000600f9
:100d1000889fbe008a9fbe000004be00816e8000d6
:100d20000100e00002003200010078000f003700ef
:100d3000916e800020dd200005003700b10f5400c7
:100d4000a18f5c002b00360064804000a100900061
:100d50000100e000f9ff3a0012003700b20f540022
:100d6000a28f5c002300360064004100100178006f
:100d70000200e000f9ff3a0011017800916e800056
:100d800020dd200005003700b10f5400a18f5c006a
:100d90001800360064804000a1009000828f50004f
:100da000f9ff3a006a6e80007b6e8000880f550064
:100db000898f5d00010031000805be000a00be00f9
:100dc000460007000000e00006003a00880f5500ca
:100dd000898f5d00060032008b05d1000a85d300a3
:100de000f2ff37000a98be0094ff0700cbff3700e0
:100df0000000eb004f05be004f04be0000000600df
:100e0000889fbe000002be0065004000e0804800f0
:100e1000000378000600a100810178000601780037
:100e20000204be008000eb00840f5400858f5c003c
:100e300027003600e50f5400e08f5c0002003e0002
:100e400068002000090020000800be00b0ff070075
:100e50008000eb000000e0001d00320090007800f0
:100e6000a4ff2f00f5ff2f0031014200a1814a00ad
:100e7000880f5100898f590003003100a1029000b2
:100e80000508780008003700088140000208780053
:100e9000a10190002301980010017800311914007d
:100ea00021911c008888be00100178000000eb0032
:100eb0000200e00004003200a20190000300e00004
:100ec0000100320064004100806e8800e480400030
:100ed000010078004f04be00000006000001be00c3
:100ee0008000eb000200e000060034000200780001
:100ef00050fd070080007800e18f400001003a00bb
:100f00008000eb00010078000000060000c0da005d
:040f100000000600d7
:020000040000fa
:100f14000000fa004300200062d6200000f0200008
:100f240001002000663c0200000000004300200095
:100f3400e2d620000050200001002000663c0200a0
:100f44000000000043002000a2d620000010200072
:100f540001002000663c0200000000000080fa004e
:100f6400000006000000fa0002c8b3006000b800e8
:100f7400443a0200000000006000b8004a39020050
:100f840000000000e2ff07006300200062d7200099
:100f94000090200001002000663c020000000000d8
:100fa4000080fa00000006000000fa0002c8b30046
:100fb4006000b800443a0200000000006000b8007d
:100fc4004a390200000000006300200062d72000bc
:100fd4000090200001002000663c02000000000098
:100fe4000080fa00000006000600fa00000f7800f6
:100ff4001107980022079800a0782000b0408800cc
:10100400407b2000c0408800607d2000d0408800e4
:101014001e0078000000e000020032009e0078000c
:10102400b14088001e0090000000e0000200320081
:101034009e009000c14088002e0090000000e00057
:1010440002003200ae009000d14088000080fa0017
:10105400000006000a00fa00640047006300200054
:10106400000178000090200001002000463b0200af
:10107400000000006040800011c0b3000148780007
:101084006040800011c0b3001140980060408000af
:1010940061c0b30021409800604080008040eb00b4
:1010a40031409800604080006400400010079800c0
:1010b40040408000514080004808de0080407800b5
:1010c4001e009000014878001e0090000002e80015
:1010d400424080005340800000002000f10f2000b7
:1010e4008202780003017800800178000100780012
:1010f40083826200000061008000eb00c000dd001c
:10110400000020000001be006128b8000001710049
:10111400818171004018de00010020000040780049
:10112400004a78001e0090000082e80042408000df
:101134005340800000f02f0001002000820278005c
:101144000301780080017800010078008382620046
:10115400000061008000eb00c000dd000000200002
:101164000001be006128b800000171008181710096
:10117400c81add004810de0000807200c818de00c6
:1011840000407800004a78001e009000630140008f
:1011940040408000514080000040780000497800c1
:1011a400604080008000eb004100980060408000b7
:1011b4006a004000100798001e00900001c8b300a8
:1011c400014878001e0090000000e8008040eb0019
:1011d40001487800604080008040eb00414898005e
:1011e400604080008040eb005148980060408000df
:1011f4008040eb0061489800604080008040eb0034
:1012040071489800604080008040eb0001509800d5
:10121400604080008040eb001150980060408000e6
:101224008040eb0021509800604080008040eb003b
:1012340031509800604080008040eb00415098009d
:10124400604080008040eb00515098006040800076
:101254008040eb0061509800604080008040eb00cb
:1012640071509800604080008040eb000158980065
:10127400604080008040eb0011589800604080007e
:101284008040eb0021589800604080008040eb00d3
:10129400315898006040800061d720009140780068
:1012a400415898006040800071d720009140780038
:1012b400515898006040800081d720009140780008
:1012c400615898006040800091d7200091407800d8
:1012d4007158980060408000a1d7200091407800a8
:1012e4000160980060408000b1d7200091407800f0
:1012f4001160980060c0b300004f78000900370007
:10130400624080001e80fb00cf80de007c00400035
:10131400e0804800000041008040eb000148780074
:101324001e4fe8001e407800ef4f5000f4ff3600d7
:101334000040eb00004f7800090037006240800055
:101344001e80fb00cf80de00c002b0000180b00030
:10135400000041008040eb00014878001e4fe80087
:10136400f0c3b3009e40780080cf5000f3ff3600f6
:101374000040eb00004f7800090037006240800015
:101384001e80fb00cf80de00c006b0000180b000ec
:10139400000041008040eb00014878001e4fe80047
:1013a4001e4078000004e000f4ff3d00604080002f
:1013b40031c6b30041e899006040800021c8b30001
:1013c40051e899006040800031c5b30061e899009c
:1013d4006040800031c6b30071e899000080fa00d3
:1013e400000006000800fa00881f78000000eb00e7
:1013f4001007980017ff0700a0d520008040eb00dd
:1014040001487800b0d520008040eb000148780006
:10141400c0d520008040eb0001487800d0d52000e2
:101424008040eb0001487800e0d520008040eb00cc
:1014340001487800f0d520008040eb000148780096
:1014440000d620008040eb000148780010d6200030
:101454008040eb000148780040002000100798000d
:10146400624080001e0090008000eb00c00eb000bf
:101474000180b0000000410051c3b300014878006e
:101484001e0090000000e8001007980062408000f1
:101494001e0090008000eb00c00eb0000180b00080
:1014a4000000410011c0b300014878001e00900004
:1014b4000000e80010079800624080001e009000c1
:1014c4008000eb00c00eb0000180b00000004100bd
:1014d40011c0b300014878001e0090000000e8002d
:1014e40010079800624080001e0090008000eb000e
:1014f400c00eb0000180b00000004100d1c3b300b1
:10150400014878001e0090000000e80010079800d1
:10151400624080001e0090008000eb00c00eb0000e
:101524000180b0000000410071c0b30001487800a0
:101534001e0090000000e800100798006240800040
:101544001e0090008000eb00c00eb0000180b000cf
:101554000000410011c0b300014878001e00900053
:101564000000e800100798006340800060d7200066
:10157400104178001e0090008000eb00c00eb00007
:101584000180b00000804100024878001e009000f5
:101594000000e800100798006340800070d7200026
:1015a400104178001e0090008000eb00c00eb000d7
:1015b4000180b00000804100024878001e009000c5
:1015c4000000e800100798006340800080d72000e6
:1015d400104178001e0090008000eb00c00eb000a7
:1015e4000180b00000804100024878001e00900095
:1015f4000000e800100798006340800090d72000a6
:10160400104178001e0090008000eb00c00eb00076
:101614000180b00000804100024878001e00900064
:101624000000e8001007980063408000a0d7200065
:10163400104178001e0090008000eb00c00eb00046
:101644000180b00000804100024878001e00900034
:101654000000e8001007980063408000b0d7200025
:10166400104178001e0090008000eb00c00eb00016
:101674000180b00000804100024878001e00900004
:101684000000e80010079800624080001e009000ef
:101694008000eb00c00eb0000180b00000004100eb
:1016a400c1c0b300014878001e0090000000e800ab
:1016b40010079800624080001e0090008000eb003c
:1016c400c00eb0000180b000000041008040eb007b
:1016d400014878001e0090000000e8001007980000
:1016e4000000eb00000f780010003700634080001a
:1016f4001e0078008000eb00c2d7200000004100eb
:10170400104178001e0090008000eb00c00eb00075
:101714000180b00000804100024878001e00900063
:101724000000e800100798001e0fe8001e00780073
:101734008000eb00c2d72000000041001040780078
:101744000004e000e9ff3a006840800090d72000e0
:10175400104078000080fb004400de000040780068
:1017640072080700004178001e0090008000eb0022
:10177400c00eb0000180b0000000440002487800b0
:101784001e0090000000e8001007980068408000e8
:1017940090d72000104078006408070000417800ca
:1017a4001e0090008000eb00c00eb0000180b0006d
:1017b40000004400024878001e0090000000e80089
:1017c4001007980068408000a0d7200010407800df
:1017d4000080fb004400de0000407800530807004e
:1017e400004178001e0090008000eb00c00eb000a5
:1017f4000180b00000004400024878001e00900000
:101804000000e8001007980068408000a0d720007e
:101814001040780045080700004178001e00900041
:101824008000eb00c00eb0000180b0000000440056
:10183400024878001e0090000000e800100798009d
:1018440068408000b0d72000104078000080fb0082
:101854004400de00004078003408070000417800ae
:101864001e0090008000eb00c00eb0000180b000ac
:1018740000004400024878001e0090000000e800c8
:101884001007980068408000b0d72000104078000e
:1018940026080700004178001e0090008000eb003d
:1018a400c00eb0000180b00000004400024878007f
:1018b4001e0090000000e8001007980063408000bc
:1018c4001e0090001e005000670050009e0078002b
:1018d4008140780066c140008000eb00c00eb0007b
:1018e4000180b0000080410002487800624080001e
:1018f4001e0090008000eb00c00eb0000180b0001c
:101904000000410071c3b300014878001e0090003c
:101914000000e80010079800624080001e0090005c
:101924008000eb00c00eb0000180b0000000410058
:1019340061c0b300014878001e0090000000e80078
:1019440010079800624080001e0090008000eb00a9
:10195400c00eb0000180b0000000410011c0b3000f
:10196400014878001e0090000000e800100798006d
:10197400624080001e0090008000eb00c00eb000aa
:101984000180b0000000410031c0b300014878007c
:101994001e0090000000e8001007980062408000dc
:1019a4001e0090008000eb00c00eb0000180b0006b
:1019b4000000410061c0b300014878001e0090009f
:1019c4000000e80010079800624080001e009000ac
:1019d4008000eb00c00eb0000180b00000004100a8
:1019e400f1c0b300014878001e0090000000e80038
:1019f40010079800624080001e0090008000eb00f9
:101a0400c00eb0000180b00000004100a1c3b300cb
:101a1400014878001e0090000000e80010079800bc
:101a2400624080001e0090008000eb00c00eb000f9
:101a34000180b00000004100b1c3b3000148780048
:101a44001e0090000000e80010079800624080002b
:101a54001e0090008000eb00c00eb0000180b000ba
:101a64000000410080c0eb00014878001e00900097
:101a74000000e800100798009e009000010f780015
:101a840009003700624080001e0078008000eb00ef
:101a9400c00eb0000180b000000041008040eb00a7
:101aa400014878001e0fe800701320009e007800a3
:101ab400808f5000f3ff360000c0eb0040479800d1
:101ac40000c0eb005047980000c0eb00604798004e
:101ad40000c0eb00704798006040800080007800f0
:101ae40000c8bf006401470034042000820178006c
:101af40042222000ea240200000000004f04780083
:101b04000080fa00000006000800fa00881f780030
:101b14000000eb00100798004efd070001c8bf004d
:101b2400e34f50000300320001c8bf00e44f5000ef
:101b340026003a00604080006a0040008040eb00cc
:101b440001487800604080006a0040000000e8001e
:101b54008040eb00014878006040800061d620009e
:101b640091407800414898006040800071d6200080
:101b740091407800514898006040800081d6200050
:101b840091407800614898006040800091d6200020
:101b94009140780071489800a0d52000104078004a
:101ba40040479800b0d52000104078005047980076
:101bb400c0d520001040780060479800d0d52000a0
:101bc40010407800704798000800370000c0eb0010
:101bd4004047980000c0eb005047980000c0eb005d
:101be4006047980000c0eb00704798004000200058
:101bf40010079800624080001e0090008000eb00f7
:101c0400c00eb0000180b0000000410051c3b30019
:101c1400014878001e0090000000e80010079800ba
:101c2400624080001e0090008000eb00c00eb000f7
:101c34000180b0000000410011c0b30001487800e9
:101c44001e0090000000e800100798006240800029
:101c54001e0090008000eb00c00eb0000180b000b8
:101c64000000410031c0b300014878001e0090001c
:101c74000000e80010079800624080001e009000f9
:101c84008000eb00c00eb0000180b00000004100f5
:101c9400d1c3b300014878001e0090000000e800a2
:101ca40010079800624080001e0090008000eb0046
:101cb400c00eb0000180b0000000410071c0b3004c
:101cc400014878001e0090000000e800100798000a
:101cd400624080001e0090008000eb00c00eb00047
:101ce4000180b0000000410011c0b3000148780039
:101cf4001e0090000000e800100798006340800078
:101d040060d72000104178001e0090008000eb0096
:101d1400c00eb0000180b00000804100024878008d
:101d24001e0090000000e800100798006340800047
:101d340070d72000104178001e0090008000eb0056
:101d4400c00eb0000180b00000804100024878005d
:101d54001e0090000000e800100798006340800017
:101d640080d72000104178001e0090008000eb0016
:101d7400c00eb0000180b00000804100024878002d
:101d84001e0090000000e8001007980063408000e7
:101d940090d72000104178001e0090008000eb00d6
:101da400c00eb0000180b0000080410002487800fd
:101db4001e0090000000e8001007980063408000b7
:101dc400a0d72000104178001e0090008000eb0096
:101dd400c00eb0000180b0000080410002487800cd
:101de4001e0090000000e800100798006340800087
:101df400b0d72000104178001e0090008000eb0056
:101e0400c00eb0000180b00000804100024878009c
:101e14001e0090000000e800100798007e4090002b
:101e2400e14f40008c003a00624080001e009000a8
:101e34008000eb00c00eb0000180b0000000410043
:101e440021c3b300014878001e0090000000e800a0
:101e540010079800624080001e0090008000eb0094
:101e6400c00eb0000180b0000000410041c0b300ca
:101e7400014878001e0090000000e8001007980058
:101e84006340800060d62000104178001e0090005e
:101e94008000eb00c00eb0000180b0000080410063
:101ea400024878001e0090000000e8001007980027
:101eb4006340800070d62000104178001e0090001e
:101ec4008000eb00c00eb0000180b0000080410033
:101ed400024878001e0090000000e80010079800f7
:101ee4006340800080d62000104178001e009000de
:101ef4008000eb00c00eb0000180b0000080410003
:101f0400024878001e0090000000e80010079800c6
:101f14006340800090d62000104178001e0090009d
:101f24008000eb00c00eb0000180b00000804100d2
:101f3400024878001e0090000000e8001007980096
:101f4400624080001e0090008000eb00c00eb000d4
:101f54000180b0000000410061c3b3000148780073
:101f64001e0090000000e800100798006240800006
:101f74001e0090008000eb00c00eb0000180b00095
:101f84000000410041c0b300014878001e009000e9
:101f94000000e8001007980063408000a0d52000ee
:101fa400104178001e0090008000eb00c00eb000cd
:101fb4000180b00000804100024878001e009000bb
:101fc4000000e8001007980063408000b0d52000ae
:101fd400104178001e0090008000eb00c00eb0009d
:101fe4000180b00000804100024878001e0090008b
:101ff4000000e8001007980063408000c0d520006e
:10200400104178001e0090008000eb00c00eb0006c
:102014000180b00000804100024878001e0090005a
:102024000000e8001007980063408000d0d520002d
:10203400104178001e0090008000eb00c00eb0003c
:102044000180b00000804100024878001e0090002a
:102054000000e80010079800624080001e00900015
:102064008000eb00c00eb0000180b0000000410011
:10207400c1c0b300014878001e0090000000e800d1
:1020840010079800624080001e0090008000eb0062
:10209400c00eb0000180b000000041008040eb00a1
:1020a400014878001e0090000000e8001007980026
:1020b4000000eb00000f7800100037006340800040
:1020c4001e007800cf80de00c2d72000000041004f
:1020d400104178001e0090008000eb00c00eb0009c
:1020e4000180b00000804100024878001e0090008a
:1020f4000000e800100798001e0fe8001e0078009a
:10210400cf80de00c2d720000000410010407800dc
:102114000004e000e9ff3a006840800090d7200006
:10212400104078000080fb004400de00004078008e
:10213400fe050700004178001e0090008000eb00bf
:10214400c00eb0000180b0000000440002487800d6
:102154001e0090000000e80010079800684080000e
:1021640090d7200010407800f00507000041780067
:102174001e0090008000eb00c00eb0000180b00093
:1021840000004400024878001e0090000000e800af
:102194001007980068408000a0d720001040780005
:1021a4000080fb004400de0000407800df050700eb
:1021b400004178001e0090008000eb00c00eb000cb
:1021c4000180b00000004400024878001e00900026
:1021d4000000e8001007980068408000a0d72000a5
:1021e40010407800d1050700004178001e009000df
:1021f4008000eb00c00eb0000180b000000044007d
:10220400024878001e0090000000e80010079800c3
:1022140068408000b0d72000104078000080fb00a8
:102224004400de0000407800c0050700004178004b
:102234001e0090008000eb00c00eb0000180b000d2
:1022440000004400024878001e0090000000e800ee
:102254001007980068408000b0d720001040780034
:10226400b2050700004178001e0090008000eb00da
:10227400c00eb0000180b0000000440002487800a5
:102284001e0090000000e8001007980063408000e2
:102294001e0078009e0090000080500067005000ef
:1022a4009e0078008140780066c140008000eb0009
:1022b400c00eb0000180b0000080410002487800e8
:1022c400624080001e0090008000eb00c00eb00051
:1022d4000180b0000000410071c3b30001487800e0
:1022e4001e0090000000e800100798006240800083
:1022f4001e0090008000eb00c00eb0000180b00012
:102304000000410081c0b300014878001e00900025
:102314000000e80010079800624080001e00900052
:102324008000eb00c00eb0000180b000000041004e
:1023340011c0b300014878001e0090000000e800be
:1023440010079800624080001e0090008000eb009f
:10235400c00eb0000180b0000000410031c0b300e5
:10236400014878001e0090000000e8001007980063
:10237400624080001e0090008000eb00c00eb000a0
:102384000180b0000000410061c0b3000148780042
:102394001e0090000000e8001007980062408000d2
:1023a4001e0090008000eb00c00eb0000180b00061
:1023b40000004100f1c0b300014878001e00900005
:1023c4000000e80010079800624080001e009000a2
:1023d4008000eb00c00eb0000180b000000041009e
:1023e400a1c3b300014878001e0090000000e8007b
:1023f40010079800624080001e0090008000eb00ef
:10240400c00eb0000180b00000004100b1c3b300b1
:10241400014878001e0090000000e80010079800b2
:10242400624080001e0090008000eb00c00eb000ef
:102434000180b00000004100f1c1b3000148780000
:102444001e0090000000e800100798006240800021
:102454001e0090008000eb00c00eb0000180b000b0
:102464000000410011c2b300014878001e00900032
:102474000000e80010079800624080001e009000f1
:102484008000eb00c00eb0000180b00000004100ed
:1024940080c0eb00014878001e0090000000e800b6
:1024a400100798009e009000010f78000900370083
:1024b400624080001e007800cf80de00c00eb000b5
:1024c4000180b000000041008040eb00014878002a
:1024d4001e0fe800701320009e007800808f5000cb
:1024e400f3ff3400604080008000780000c8bf0023
:1024f4006401470034042000820178004222200055
:10250400ea240200000000004f0478000080fa0072
:10251400000006000800fa000000eb001007980015
:10252400ccfa0700400020001007980060408000ab
:102534006a0040008040eb00014878006040800061
:102544006a0040000000e8008040eb000148780089
:10255400624080001e0090008000eb00c00eb000be
:102564000180b0000000410051c3b300014878006d
:102574001e0090000000e8001007980062408000f0
:102584001e0090008000eb00c00eb0000180b0007f
:102594000000410011c0b300014878001e00900003
:1025a4000000e80010079800624080001e009000c0
:1025b4008000eb00c00eb0000180b00000004100bc
:1025c40041c0b300014878001e0090000000e800fc
:1025d40010079800624080001e0090008000eb000d
:1025e400c00eb0000180b00000004100d1c3b300b0
:1025f400014878001e0090000000e80010079800d1
:10260400624080001e0090008000eb00c00eb0000d
:102614000180b0000000410071c0b300014878009f
:102624001e0090000000e80010079800624080003f
:102634001e0090008000eb00c00eb0000180b000ce
:102644000000410011c0b300014878001e00900052
:102654000000e800100798006340800060d7200065
:10266400104178001e0090008000eb00c00eb00006
:102674000180b00000804100024878001e009000f4
:102684000000e800100798006340800070d7200025
:10269400104178001e0090008000eb00c00eb000d6
:1026a4000180b00000804100024878001e009000c4
:1026b4000000e800100798006340800080d72000e5
:1026c400104178001e0090008000eb00c00eb000a6
:1026d4000180b00000804100024878001e00900094
:1026e4000000e800100798006340800090d72000a5
:1026f400104178001e0090008000eb00c00eb00076
:102704000180b00000804100024878001e00900063
:102714000000e8001007980063408000a0d7200064
:10272400104178001e0090008000eb00c00eb00045
:102734000180b00000804100024878001e00900033
:102744000000e8001007980063408000b0d7200024
:10275400104178001e0090008000eb00c00eb00015
:102764000180b00000804100024878001e00900003
:102774000000e80010079800624080001e009000ee
:102784008000eb00c00eb0000180b00000004100ea
:1027940021c3b300014878001e0090000000e80047
:1027a40010079800624080001e0090008000eb003b
:1027b400c00eb0000180b0000000410041c0b30071
:1027c400014878001e0090000000e80010079800ff
:1027d4006340800060d62000104178001e00900005
:1027e4008000eb00c00eb0000180b000008041000a
:1027f400024878001e0090000000e80010079800ce
:102804006340800070d62000104178001e009000c4
:102814008000eb00c00eb0000180b00000804100d9
:10282400024878001e0090000000e800100798009d
:102834006340800080d62000104178001e00900084
:102844008000eb00c00eb0000180b00000804100a9
:10285400024878001e0090000000e800100798006d
:102864006340800090d62000104178001e00900044
:102874008000eb00c00eb0000180b0000080410079
:10288400024878001e0090000000e800100798003d
:10289400624080001e0090008000eb00c00eb0007b
:1028a4000180b0000000410061c3b300014878001a
:1028b4001e0090000000e8001007980062408000ad
:1028c4001e0090008000eb00c00eb0000180b0003c
:1028d4000000410041c0b300014878001e00900090
:1028e4000000e8001007980063408000a0d5200095
:1028f400104178001e0090008000eb00c00eb00074
:102904000180b00000804100024878001e00900061
:102914000000e8001007980063408000b0d5200054
:10292400104178001e0090008000eb00c00eb00043
:102934000180b00000804100024878001e00900031
:102944000000e8001007980063408000c0d5200014
:10295400104178001e0090008000eb00c00eb00013
:102964000180b00000804100024878001e00900001
:102974000000e8001007980063408000d0d52000d4
:10298400104178001e0090008000eb00c00eb000e3
:102994000180b00000804100024878001e009000d1
:1029a4000000e80010079800624080001e009000bc
:1029b4008000eb00c00eb0000180b00000004100b8
:1029c40080c0eb00014878001e0090000000e80081
:1029d400100798009e009000010f7800090037004e
:1029e400624080001e007800cf80de00c00eb00080
:1029f4000180b000000041008040eb0001487800f5
:102a04001e0fe800701320009e007800808f500095
:102a1400f3ff340000c0eb004047980000c0eb0017
:102a24005047980000c0eb006047980000c0eb00de
:102a340070479800604080008000780000c8bf00a4
:102a440064014700340420008201780042222000ff
:102a5400ea240200000000000080fa0000000600e2
:102a64001200fa000040eb002047980000c8bf00a5
:102a74000c3e020000000000200798002e00900089
:102a84000000e00010003200604080008000780008
:102a940000c8bf00f0014700690147000302780045
:102aa400820178002e0190006e27020000000000d1
:102ab400200798008e08900030042000808f50007a
:102ac400030032005c0137000040eb005b0137007b
:102ad40060408000c058900060d72000104078000b
:102ae40080cf50001e003a0060408000d058900013
:102af40070d720001040780080cf500018003a00b2
:102b040060408000e058900080d72000104078009a
:102b140080cf500012003a0060408000f0589000ce
:102b240090d720001040780080cf50000c003a006d
:102b34006040800080609000a0d7200010407800a2
:102b440080cf500006003a00604080009060900002
:102b5400b0d720001040780080cf5000020032002f
:102b64000040eb0035013700a0d52000104078006c
:102b74000004e0000c003a00b0d5200010407800ba
:102b84000004e00008003a00c0d52000104078009e
:102b94000004e00004003a00d0d520001040780082
:102ba4000004e0002a0032009e489000a0d52000d6
:102bb4001040780080cf50000f003a00ae489000db
:102bc400b0d520001040780080cf50000a003a00b1
:102bd400be489000c0d520001040780080cf50003f
:102be40005003a00ce489000d0d52000104078006f
:102bf40080cf5000160032009e489000e0d520009f
:102c04001040780080cf50000f003a00ae4890008a
:102c1400f0d520001040780080cf50000a003a0020
:102c2400be48900000d620001040780080cf5000ad
:102c340005003a00ce48900010d6200010407800dd
:102c440080cf5000020032000040eb00fb00370050
:102c540060408000000f7800010f20001e8f4000ac
:102c64002e0090008000eb00000fb1000180b10045
:102c74001e00400030079800eb0037001e0078006b
:102c8400104078000080fb00e60f50005c0032002a
:102c9400e60f500007003c00e10f50002100320015
:102ca400e30f5000360032000000e0001400320050
:102cb400d300370051032000810f5000120032006e
:102cc40051032000810f500004003c003103200018
:102cd400810f50006a003200c900370061032000f0
:102ce400810f5000a0003200f10f2000810f50002e
:102cf400c3003a00be009000010f7800ca003700fc
:102d04001e0fe800c80037001e0fe8001e0fe80081
:102d14001e00780090407800214798001e0fe800bc
:102d2400c10037001e0fe8001e0fe8001e007800e7
:102d340090407800e0d62000014878001e0fe8009b
:102d44001e00780090407800f0d6200001487800fa
:102d54001e0fe8001e0078009040780000d7200085
:102d6400014878001e0fe8001e00780090407800ab
:102d740010d72000014878001e0fe800aa00370091
:102d84001e0fe8001e00780090407800014f980064
:102d94001e0fe8001e00780090407800a0d62000a6
:102da400014878001e0fe8001e007800904078006b
:102db400b0d62000014878001e0fe8001e007800fd
:102dc40090407800c0d62000014878001e0fe8002b
:102dd4001e00780090407800d0d62000014878008a
:102de4001e0fe8000e4890000080fb008000eb00fe
:102df40064005000e08058001e0f40008a00370035
:102e04001e0fe8001e00780090407800014f9800e3
:102e14001e0fe8001e0078009040780020d72000a4
:102e2400014878001e0fe8001e00780090407800ea
:102e340030d72000014878001e0fe8001e007800fb
:102e44009040780040d72000014878001e0fe80029
:102e54001e0078009040780050d720000148780088
:102e64001e0fe8000e4890000080fb008000eb007d
:102e740064005000e08058001e0f40006a003700d4
:102e84001e0fe8001e00780090407800014f980063
:102e94001e0fe8001e007800104078000080fb0040
:102ea4008000eb0070408800814088001e0fe8001d
:102eb40070408000814080004809dd00c801de00c8
:102ec400830171004801dd001e0078001040780085
:102ed4000080fb008000eb0002004000838048007b
:102ee40070408800814088001e0fe8007040800018
:102ef400814080004809dd00c801de0083017100c3
:102f04004801dd001e007800104078000080fb00be
:102f14008000eb000200400083804800704088007d
:102f2400814088001e0fe8007040800081408000ce
:102f34004809dd00c801de00830171004801dd009d
:102f44001e007800104078000080fb008000eb0039
:102f5400020040008380480070408800814088005f
:102f64001e0fe800300037001e0fe8001e00780036
:102f740090407800014f98001e0fe8001e00780072
:102f840090407800a0d52000014878001e0fe8008a
:102f94001e00780090407800b0d5200001487800e9
:102fa4001e0fe8001e00780090407800c0d5200075
:102fb400014878001e0fe8001e0078009040780059
:102fc400d0d52000014878001e0fe8009e489000ec
:102fd400e0d5200001487800ae489000f0d52000ec
:102fe40001487800be48900000d6200001487800cf
:102ff400ce48900010d62000014878000a0037001f
:103004001e0fe8001e00780090407800014f9800e1
:103014001e0fe8000e4890000080fb008000eb00cb
:103024001e0f4000000000003e0090009e0078004b
:10303400808f500011ff39002e4090000080fa006c
:10304400000006000200fa0001c8bf00e64f50006d
:1030540002003a0050c0b300ce00370000c8bf00e1
:103064000080fb004200dd000000e8004300dd00ba
:103074000030b000cf80de004a39020000000000ba
:1030840021c2b300814f50000600320000c8bf00c7
:103094008041eb004204200021c0b300b41c0200b4
:1030a4000000000010c0b300004f78006cfe070061
:1030b4001047980001c8bf000000fb00e20f500059
:1030c40036003200e20f500005003c000000e00032
:1030d40008003200e10f500016003200ac00370047
:1030e400e30f500048003200e40f50007500320036
:1030f400a700370060d620008040eb00014878002c
:1031040070d620008040eb000148780080d6200073
:103114008040eb000148780090d620008040eb000e
:1031240001487800aff8070010c0b30001e8b70009
:10313400970037001e409000e24f500014003a0000
:10314400604080008050900060d6200001487800e4
:10315400604080009050900070d6200001487800b4
:1031640060408000a050900080d620000148780084
:1031740060408000b050900090d620000148780054
:1031840061fa070020c0b30001e8b70080003700ef
:103194008a000700004f78007d0037001e40900031
:1031a400e54f50000e003a00c10007000004e000a3
:1031b40006003200b0408000000001006f010700eb
:1031c40030c0b30001e8b700710037006b0107009d
:1031d400d0408000000001000168ef006c0037005f
:1031e4001e409000e64f500004003a0063010700bf
:1031f40010c0b30001e8b700650037006f00070096
:10320400004f78006200370040c0b300004f7800e0
:1032140072408000834080000080eb008080eb00df
:10322400800f5100818f5900560032007040800099
:10323400814080008101d1000081d30020408000c2
:1032440031408000800f5100818f59004f003100c0
:103254000040eb001047980060d6200090407800b2
:1032640020d620000148780070d6200090407800d5
:1032740030d620000148780080d6200090407800a5
:1032840040d620000148780090d620009040780075
:1032940050d6200001487800404080005140800012
:1032a40061004000e08048004040880051408800b0
:1032b40015fa07003101070040c0b30001e8b70068
:1032c4003300370040c0b300004f78001e40900028
:1032d400e54f500021003a000268ef0020d620009c
:1032e4009040780060d620001040780080cf5000d5
:1032f40012003a0030d620009040780070d62000aa
:103304001040780080cf50000c003a0040d62000d6
:103314009040780080d620001040780080cf500084
:1033240006003a0050d620009040780090d6200045
:103334001040780080cf50000400320030c0b30049
:10334400004f7800c0408000000001000b0107001e
:1033540030c0b30001e8b7000d0037001e409000f4
:10336400e64f500004003a000401070010c0b30007
:1033740001e8b7000600370010000700004f78008e
:1033840003003700000000000100370000000000c7
:103394001e4078000080fa00000006000000fa00d9
:1033a40000c8bf006c1e02000000000060c0b30033
:1033b40001e8b7000080fa00000006000200fa00ed
:1033c40010c0b300004f780002c8bf00e14f5000a6
:1033d40022003c0092408000a340800020408000f6
:1033e40031408000800f5100818f59002d00310041
:1033f40001c8bf000000fb00e20f500006003200cd
:10340400e40f500006003200e10f500006003a00bd
:10341400f4f7070005003700bbf907000300370085
:10342400b9f9070001003700000000000428ef008c
:103434000628ef0020408000314080006a004000f0
:10344400e080480090408800a140880002c8bf0086
:103454000040e80002e8b7001200370001c8bf00ce
:103464000000fb00e20f500008003200e40f50009f
:1034740006003200e10f500008003a000168ef0036
:103484000040eb00004f780005003700d5f7070037
:1034940010c0b30001e8b7000100370000000000cd
:1034a400b60007001e4078000080fa000000060005
:1034b4000600fa0000b02100010020004a39020091
:1034c40000000000004f780032c0b30000b02100bb
:1034d40001002000443a02000000000041d820000e
:1034e40000c8bf008438210063d6200012012000e8
:1034f400ea24020000000000100798002107980049
:103504001e41780000b0210001002000443a02006e
:10351400000000001e019000ae01900030ff2f005b
:10352400f1ff2f00800f5100818f590002003a00f3
:1035340010c0b30012003700f6fb070020408000e3
:103544003140800010079800210798000000000017
:1035540022408000334080001e009000ae009000a6
:103564000001510081815900100020000100200059
:10357400800f5100818f5900f5ff36000040eb00a9
:103584000080fa00000006000800fa004047980096
:10359400310798006000b800008fbe00630020006f
:1035a40062d720000090200001002000463b02006a
:1035b4000000000060d720009040780070d7200001
:1035c4001040780080c0700080d720001040780040
:1035d40080c0700090d720001040780080c0700038
:1035e400a0d720001040780080c07000b0d7200021
:1035f4001040780000c070000004e00018003a0099
:1036040060d720008040eb000148780070d720008c
:1036140081c0b3000148780080d72000c1cdb30039
:103624000148780090d720008040eb0001487800e2
:10363400a0d720008040eb0001487800b0d72000dc
:103644008040eb00014878006300200062d720002e
:103654000090200001002000663c020000000000f1
:103664004e41900001802000824878003e00900086
:103674006040880080672500412321004040880085
:103684005140880090d72000104078000081fb0052
:103694008001eb0040408000514080000200400067
:1036a400838048004040880051408800a0d7200013
:1036b400104078000081fb008001eb004040800056
:1036c4005140800002004000838048004040880050
:1036d40051408800b0d72000104078000081fb00e2
:1036e4008001eb0040408000514080000200400017
:1036f40083804800404088005140880090d72000d3
:1037040090407800a0d720001040780080c0680066
:10371400b0d720001040780000c068000081fb0092
:103724008001eb00404080005140800002004000d6
:1037340083804800404088005140880043002000b6
:103744000e01780000f0200001002000663c020019
:1037540000000000430020000e017800001020004b
:1037640001002000663c0200000000000300070086
:103774000168ef000080fa00000006000000fa0073
:103784000428ef000628ef00a0002000010020001c
:1037940090408800a14088000268ef000080fa0091
:1037a400000006000000fa00204080003140800044
:1037b40061004000e08048002040880031408800db
:1037c4000080fa00000006000200fa00000f7800f2
:1037d40060d62000904078001e00780001487800f0
:1037e4001e00e80071d6200091407800014878005e
:1037f4001e80e80081d620009140780001487800be
:103804009e0078006380400091d6200091407800ab
:10381400014878000080fa00000006000200fa0067
:10382400000f7800a0d62000904078001e00780099
:10383400014878001e00e800b1d6200091407800cd
:10384400014878001e80e800c1d62000914078002d
:10385400014878009e00780063804000d1d62000a3
:1038640091407800014878000080fa0000000600ca
:103874000200fa00000f7800e0d6200090407800a3
:103884001e007800014878001e00e800f1d62000f0
:1038940091407800014878001e80e80001d720009c
:1038a40091407800014878009e00780063804000d1
:1038b40011d7200091407800014878000080fa0078
:1038c400000006000200fa00000f780020d7200054
:1038d400904078001e007800014878001e00e8003f
:1038e40031d7200091407800014878001e80e8001c
:1038f40041d7200091407800014878009e0078006c
:103904006380400051d7200091407800014878003e
:103914000080fa00000006000000fa0070408000f9
:10392400814080000080fa00000006000200fa00d6
:10393400004f78009e4078006fcf60001e407800f2
:10394400e94f500003003e0001c3b3001ec0400015
:103954000200370071c3b3001ec040000080fa00ab
:10396400000006000a00fa004047980051479800fa
:1039740032079800034f98004e409000e84f5000e3
:103984000200360000c0eb00d00037005e4090001b
:103994000080fb00e10f500005003200e10f5000f1
:1039a40010003500e40f50000e003c0010003700fa
:1039b4000e007800430020000001780000f0200091
:1039c40001002000463b0200000000001e00be0073
:1039d400e00f5000e08f580004003a00d0cfb3004d
:1039e400ba003700b0cfb300b800370000000000c1
:1039f4000e4890000080fb00640060000000e000be
:103a040002003200a0cfb300b00037000e4890008f
:103a14000004e000290032005e4090000080fb00ba
:103a2400e10f500003003200e20f500009003200a1
:103a3400220037000e4890008080fb001002200016
:103a4400008060000000e00017003a00a0cfb3003f
:103a54009e0037000e4890008080fb00000220008a
:103a6400008060000000e000050032000e48900075
:103a74000004e00002003500a0cfb300930037003b
:103a84000e4890000080fb00700060000000e00021
:103a9400070032000e4890000004e00006003500e4
:103aa400a0cfb300890037000000000003003700f6
:103ab4000000000001003700000000004e409000ac
:103ac400840007008e48900000cfb30080c06000df
:103ad4005e40900000c07000004178004e409000ad
:103ae4000080fb004200dd000000e8004300dd0030
:103af400cf80de00443a0200000000003e00900047
:103b04000000e00009003a0060418000300798009e
:103b14000000e8006041880060418000f00f400030
:103b240002003a0000002c00604188003e00900032
:103b34004800de00004178004e4090000080fb0009
:103b44004200dd000000e800c300dd00004020006a
:103b540000804000cf80de00443a020000000000f4
:103b64003e009000004178004e4090000080fb0031
:103b74004200dd000000e800c300dd00005020002a
:103b840000804000cf80de00443a020000000000c4
:103b94004e4090000080fb004200dd000000e80081
:103ba4004300dd000010b000cf80de0012c0b3007f
:103bb400443a020000000000000000004e40900063
:103bc4000080fb004200dd000000e8004300dd004f
:103bd4000010b000cf80de004a390200000000006f
:103be4000004e000f5ff3a004e4090000080fb0026
:103bf400110020000008dd000080ea008000780049
:103c04004041800000806000404188000e489000e0
:103c14000080fb00e10060004e4090000080fb004b
:103c24000008dd0080007800404180000100700041
:103c3400404188004e4090000080fb0011002000ad
:103c44000008dd000080ea00800078005041800018
:103c540000806000504188004e4090000080fb00ce
:103c6400cf80de00000040008180480002db20009d
:103c7400020040008000eb00010878004e409000f4
:103c84000080fb00cf80de0002dc20000000410049
:103c94008040eb0001487800000000004e40900096
:103ca4000080fb004200dd000000e8004300dd006e
:103cb4000030b000cf80de004a390200000000006e
:103cc4000004e000f5ff32004e4090000080fa004e
:103cd400000006000200fa00004f78001e40780041
:103ce400e84f50000200360000c0eb0047003700e8
:103cf4001e80fb004200dd000000e8004300dd0000
:103d04000010b000cf80de0002c1b300443a0200cc
:103d140000000000000000001e80fb004200dd00e7
:103d24000000e8004300dd000010b000cf80de009a
:103d34004a390200000000000004e000f6ff3a00e7
:103d44001e80fb004200dd000000e8004300dd00af
:103d54000020b000cf80de00f2c1b300443a02007c
:103d6400000000001e80fb00110020000008dd00a0
:103d74000080ea00800078004041800000806000fc
:103d8400404188001e80fb00110020000008dd0077
:103d94000080ea00800078005041800000806000cc
:103da400504188001e80fb00cf80de0000004000f0
:103db4008180480002db2000020040008000eb000c
:103dc400010878001e80fb00cf80de0002dc2000aa
:103dd400000041008040eb00014878000000000032
:103de4001e80fb004200dd000000e8004300dd000f
:103df4000030b000cf80de004a390200000000002d
:103e04000004e000f6ff3a0010c0b3000080fa009e
:103e1400000006000200fa00004f78001e407800ff
:103e2400e84f50000200360000c0eb003c003700b1
:103e34001e80fb004200dd000000e8004300dd00be
:103e4400cf80de004a390200000000000080fb0041
:103e54006f006000e10f500002003200b0cfb300e9
:103e64002f0037001e80fb004200dd000000e80048
:103e74004300dd000030b000cf80de004a3902008c
:103e840000000000f34f500002003200d0cfb30016
:103e9400230037001e80fb004200dd000000e80024
:103ea4004300dd000010b000cf80de0022c0b3006c
:103eb400443a020000000000000000001e80fb00e5
:103ec4004200dd000000e8004300dd000010b00007
:103ed400cf80de004a390200000000000004e00048
:103ee400f6ff3a001e80fb004200dd000000e800ff
:103ef4004300dd000030b000cf80de004a3902000c
:103f040000000000f44f5000040032001e4078000e
:103f140070ff0700c0cfb3000100370010c0b3002a
:103f24000080fa00000006000a00fa0040479800ea
:103f340031079800420798004e409000e84f500027
:103f44000200360000c0eb00ce0037004e40900067
:103f54000080fb004200dd000000e8004300dd00bb
:103f6400cf80de004a390200000000000080fb0020
:103f74006f006000e10f500002003200b0cfb300c8
:103f8400c00037004e4090000080fb004200dd007e
:103f94000000e8004300dd000030b000cf80de0008
:103fa4004a39020000000000f34f500002003200c2
:103fb400d0cfb300b30037003e009000104078002b
:103fc4000080fb008000eb00008fbe001e00be00de
:103fd4004809dd00c801de00830171004801dd00ed
:103fe4003e0090000000e800104078000080fb00d4
:103ff4008000eb00001f4100019749001e00be0035
:104004004809dd00c801de00830171004801dd00bc
:104014003e0090000080e800104078000080fb0023
:104024008000eb00001f4100019749001e00be0004
:104034004809dd00c801de00830171004801dd008c
:104044003e00900063004000104078000080fb00b8
:104054008000eb00001f4100019749001e01be00d3
:104064000080eb008080eb00800f5100818f5900ad
:10407400040032001e00be00e00f5000e08f580024
:1040840002003a0040cfb3007e0037004e0090009b
:104094000000e00002003a0050cfb300790037007e
:1040a4004e4090000080fb004200dd000000e8006c
:1040b400c300dd0000c0200000804000cf80de008f
:1040c400430020003e019000663c02000000000016
:1040d4004e0090004800de00004178004e40900001
:1040e4000080fb004200dd000000e800c300dd00aa
:1040f4000000210000804000cf80de00443a02002e
:10410400000000004e009000004178004e409000f6
:104114000080fb004200dd000000e800c300dd0079
:104124000010210000804000cf80de00443a0200ed
:10413400000000004e4090000080fb004200dd00c3
:104144000000e8004300dd000010b000cf80de0076
:1041540042c0b300443a0200000000000000000026
:104164004e4090000080fb004200dd000000e800ab
:104174004300dd000010b000cf80de004a390200a9
:10418400000000000004e000f5ff3a004e409000fb
:104194000080fb00110020000008dd008000780092
:1041a40040418000008060000000e00028003200f0
:1041b4000040eb00330037004e4090000080fb00cd
:1041c4004200dd000000e8004300dd000020b000f4
:1041d400cf80de004a390200000000000080fb00ae
:1041e400680060000000e0000c0032004e409000c7
:1041f4000080fb004200dd000000e8004300dd0019
:104204000020b000cf80de0082c0b300443a020038
:104214000000000030cfb3001a0037004e40900079
:104224000080fb004200dd000000e8004300dd00e8
:104234000030b000cf80de004a39020000000000e8
:104244000004e00003003a00c0cfb3000d003700c3
:10425400000000004e4090000080fb004200dd00a2
:104264000000e8004300dd000030b000cf80de0035
:104274004a39020000000000f74f5000ceff3a0018
:1042840010c0b3000080fa00000006000200fa002b
:10429400004f78001e407800e84f500002003600be
:1042a40000c0eb004f0037001e80fb004200dd0021
:1042b4000000e8004300dd00cf80de004a39020040
:1042c400000000000080fb006f006000e10f500060
:1042d40002003200b0cfb300420037001e80fb0062
:1042e4004200dd000000e8004300dd000010b000e3
:1042f400cf80de0082c0b300443a02000000000018
:10430400000000001e80fb004200dd000000e80009
:104314004300dd000010b000cf80de004a39020007
:10432400000000000004e000f6ff3a001e80fb00dd
:10433400110020000008dd000080ea008000780001
:104344005041800000806000504188001e80fb00c6
:10435400110020000008dd0080007800404180004a
:10436400008060000000e000120032000040eb001a
:104374001c0037001e80fb004200dd000000e80046
:104384004300dd000020b000cf80de004a39020087
:10439400000000000080fb00680060000000e000f6
:1043a400050032001e4078004afe070030cfb300fb
:1043b4000c003700000000001e80fb004200dd00fe
:1043c4000000e8004300dd000030b000cf80de00d4
:1043d4004a390200000000000004e000e5ff3a0052
:1043e40010c0b3000080fa00000006000a00fa00c2
:1043f4004047980031079800420798000040eb00be
:10440400004f78000000eb00100798004e40900029
:10441400e84f5000030036000080eb008080eb0082
:10442400c40037004e4090000080fb004200dd00d5
:104434000000e8004300dd00cf80de004a390200be
:10444400000000000080fb006f006000e10f5000de
:1044540003003200b0ff2f00f1ff2f00b50037003a
:104464004e0090000000e00003003a0020ff2f00ff
:10447400f1ff2f00af0037004e4090000080fb009a
:104484004200dd000000e8004300dd000030b00021
:10449400cf80de004a39020000000000004f78009f
:1044a4001e407800f74f5000060032001e4078008e
:1044b400fc4f50000300320090ff2f00f1ff2f004b
:1044c4009c0037004e4090000080fb00110020004b
:1044d4000008dd008000780050418000008060000a
:1044e4000000e0002d0032004e4090000080fb00f0
:1044f4004200dd000000e8004300dd000020b000c1
:10450400cf80de004a390200000000007f4f6000c7
:104514001e80fb00700060000000e0001400320008
:104524004e4090000080fb004200dd000000e800e7
:104534004300dd000020b000cf80de0002c1b300e4
:10454400443a0200000000004e4090000080fb004e
:10455400110020000008dd000080ea0080007800df
:104564005041800000806000504188000b003700fb
:104574001e80fb00680060000000e00005003200bf
:104584004e409000d3fd070030ff2f00f1ff2f00b5
:10459400680037006000b800660037004e409000a5
:1045a4000080fb004200dd000000e800c300dd00e5
:1045b40000f0210000804000cf80de004a39020074
:1045c400000000000080fb004a00dd001007980096
:1045d400ce0090001e009000808f50000400360032
:1045e4009e00900041079800010037000000000081
:1045f4004e409000863d0200000000001007980025
:104604004e4090000080fb004200dd000000e80006
:104614004300dd000030b000cf80de004a390200e4
:1046240000000000004f78001e407800f74f500053
:10463400080032001e407800fc4f50000500320094
:104644004e409000a3fd070090ff2f00f1ff2f00c4
:10465400380037004e4090000080fb00110020001d
:104664000008dd0080007800404180000080600088
:104674000000e00006003200ce0090001e00900012
:10468400808f5000020036006000b8002900370017
:10469400ce0090001e009000808f5000d3ff3e009b
:1046a4004e019000be0090004e409000923e0200e9
:1046b400000000004e4090000080fb004200dd003e
:1046c4000000e8004300dd000010b000cf80de00f1
:1046d40002c2b300443a02000000000000000000df
:1046e4004e4090000080fb004200dd000000e80026
:1046f4004300dd000010b000cf80de004a39020024
:10470400000000000004e000f5ff3a004e40900075
:104714000080fb00110020000008dd00800078000c
:104724005041800001007000504188004e0090000c
:104734008000eb000080fa00000006000a00fa0086
:10474400881f780040479800310798004207980076
:104754000040eb00004f78000000eb0010079800c9
:104764004e409000e84f5000030036000080eb00fc
:104774008080eb00930037004e4090000080fb00e7
:104784004200dd000000e8004300dd00cf80de00d1
:104794004a390200000000000080fb006f00600046
:1047a400e10f500003003200b0ff2f00f1ff2f0093
:1047b400840037004e0090000000e00003003a003f
:1047c40020ff2f00f1ff2f007e0037004e409000a5
:1047d4000080fb004200dd000000e800c300dd00b3
:1047e40000e0210000804000cf80de004a39020052
:1047f400000000000080fb004a00dd001007980064
:104804009e0090004e009000808f50000400310004
:104814009e0090004107980001003700000000004e
:104824004e4090000c3e020000000000100798006b
:104834004e4090000080fb004200dd000000e800d4
:104844004300dd000030b000cf80de004a390200b2
:1048540000000000004f78001e407800f74f500021
:10486400220032001e407800fc4f50001a003a002b
:104874001e0090000000e0002e003a004e40900020
:10488400863d020000000000000478004e409000c5
:104894000080fb004200dd000000e800c300dd00f2
:1048a40000f0210000804000cf80de004a39020081
:1048b400000000000080fb004a00dd00800f54006f
:1048c4000a003a004e40900002fd070090ff2f00be
:1048d400f1ff2f003b0037004e409000fdfc070025
:1048e40090ff2f00f1ff2f00360037004e4090005c
:1048f4000080fb00110020000008dd00800078002b
:1049040040418000008060000000e00005003200ab
:104914001e0090000000e00002003a006000b800b1
:10492400280037001e0090000000e000bbff3200aa
:1049340001003700000000009e0090004e0090002f
:10494400808f5000020031009e00900041079800c3
:104954004e019000be0090004e4090003e3f020089
:10496400000000004e4090000080fb004200dd008b
:104974000000e8004300dd000010b000cf80de003e
:1049840002c4b300443a020000000000000000002a
:104994004e4090000080fb004200dd000000e80073
:1049a4004300dd000010b000cf80de004a39020071
:1049b400000000000004e000f5ff3a004e00900003
:1049c4008000eb004f0478000080fa00000006002d
:1049d4001200fa00004f98005107980062079800ef
:1049e40073079800040f98000040eb00004f780014
:1049f4000000eb00100798000e489000e84f5000ac
:104a0400030036000080eb008080eb0030013700ab
:104a14000e4890000080fb004200dd000000e8002a
:104a24004300dd00cf80de004a39020000000000b0
:104a34000080fb006f0060000080e900e20f50007e
:104a440004003e006e0090000000e000040032000c
:104a540006003700b0ff2f00f1ff2f001c013700c4
:104a640020ff2f00f1ff2f00190137007e00900076
:104a7400104078000080fb008000eb0020079800c5
:104a8400310798002e009000be0090004809dd0018
:104a9400c801de00830171004801dd007e00900042
:104aa4000000e800104078000080fb008000eb006c
:104ab40002004000838048002007980031079800d6
:104ac4002e009000be0090004809dd00c801de0001
:104ad400830171004801dd007e0090000080e80041
:104ae400104078000080fb008000eb0002004000d2
:104af4008380480020079800310798002e0090001a
:104b0400be0090004809dd00c801de008301710089
:104b14004801dd007e0090006300400010407800f2
:104b24000080fb008000eb0002004000838048000e
:104b340020079800310798002e009000be009000d6
:104b4400e00f5000e08f58000f003a000e4890002c
:104b54000080fb004200dd000000e8004300dd00af
:104b6400cf80de004a390200000000000080fb0014
:104b7400640060000000e00003003a0040ff2f00e2
:104b8400f1ff2f00d20037000e0890000000e00073
:104b94000f003a000e4890000080fb004200dd0048
:104ba4000000e8004300dd00cf80de004a39020047
:104bb400000000000080fb00640060000000e000d2
:104bc40003003a0050ff2f00f1ff2f00c000370010
:104bd4000e4890000080fb004200dd000000e80069
:104be4004300dd000030b000cf80de004a3902000f
:104bf40000000000004f780020c4b3009e407800fd
:104c040080cf50000b00320020c2b3009e407800d9
:104c140080cf50000700320020c3b3009e407800cc
:104c240080cf50000300320090ff2f00f1ff2f00cf
:104c3400a70037000e4890000080fb004200dd0012
:104c44000000e800c300dd0000c020000080400038
:104c5400cf80de00430020007e019000663c02000d
:104c6400000000000e0890004800de0000417800bb
:104c74000e4890000080fb004200dd000000e800c8
:104c8400c300dd000000210000804000cf80de0072
:104c9400443a0200000000000e0890000041780031
:104ca4000e4890000080fb004200dd000000e80098
:104cb400c300dd000010210000804000cf80de0032
:104cc400443a0200000000000e4890000080fb00ff
:104cd4004200dd000000e800c300dd0000f0210018
:104ce40000804000cf80de004a390200000000004e
:104cf4000080fb004a00dd0010079800ee009000e1
:104d04001e009000808f5000040036009e0090002a
:104d14006107980001003700000000000e48900071
:104d2400863d020000000000100798000e48900025
:104d34000080fb004200dd000000e8004300dd00cd
:104d44000030b000cf80de004a39020000000000cd
:104d54000004e00003003a00c0ff2f00f1ff2f0021
:104d64005b0037000e4890000080fb00110020001b
:104d74000008dd0080007800404180000080600071
:104d84000000e00006003200ee0090001e009000db
:104d9400808f5000020036006000b8004c003700dd
:104da400ee0090001e009000808f5000daff3e005d
:104db4006e019000de0090000e489000923e0200ca
:104dc400000000000e4890000080fb004200dd005f
:104dd4000000e8004300dd000010b000cf80de00da
:104de40002c2b300443a02000000000000000000c8
:104df4000e4890000080fb004200dd000000e80047
:104e04004300dd000010b000cf80de004a3902000c
:104e1400000000000004e000f5ff3a000100370044
:104e2400000000000e4890000080fb004200dd00fe
:104e34000000e8004300dd000020b000cf80de0069
:104e44004a390200000000007f4f60001e80fb0012
:104e5400700060000000e0000d0032000e48900079
:104e64000080fb004200dd000000e8004300dd009c
:104e74000020b000cf80de0002c1b300443a02003b
:104e8400000000006e0090008000eb00100037006e
:104e94001e80fb00680060000000e000e0ff3200bc
:104ea4000e4890000080fb004200dd000000e80096
:104eb4004300dd000020b000cf80de0082c0b300dc
:104ec400443a02000000000030ff2f00f1ff2f00e1
:104ed4000080fa00000006001600fa00404f980017
:104ee40071079800020f9800130f9800240f980080
:104ef4000000eb00000f78004e489000e84f50008f
:104f0400030036000080eb008080eb001a023700bb
:104f14004e4890000080fb004200dd000000e800e5
:104f24004300dd00cf80de004a39020000000000ab
:104f3400204798002e4090000080fb006f00600026
:104f44000080e900e20f500004003e000e089000cb
:104f54000000e0000400320006003700b0ff2f001c
:104f6400f1ff2f000402370020ff2f00f1ff2f0074
:104f7400010237004e4890000080fb00cf80de0025
:104f8400000040008180480002db20000200400055
:104f9400100078000000e00026003a00010037000d
:104fa400000000004e4890000c3e0200000000008b
:104fb400000f78004e4890000080fb004200dd00a6
:104fc4000000e8004300dd000030b000cf80de00c8
:104fd4004a390200000000000004e00003003a0027
:104fe400c0ff2f00f1ff2f00e30137004e4890006f
:104ff4000080fb00110020000008dd008000780024
:1050040040418000008060000000e00005003200a4
:105014001e0078000000e00002003a006000b800c2
:10502400d50137001e0078000000e000dcff3200ec
:10503400000000002e4090000080fb00670060002c
:10504400e30f500000013200e40f500086003200ec
:10505400e20f500072013a004e4890000080fb00bd
:10506400cf80de00000040008180480002db200089
:1050740002004000100078000000e0005c003a00ec
:105084006300470082002000800078004e489000b2
:105094003e3f0200000000004e4890000080fb00ec
:1050a4004200dd000000e8004300dd000010b00015
:1050b400cf80de0002c4b300443a020000000000c6
:1050c400000000004e4890000080fb004200dd001c
:1050d4000000e8004300dd000010b000cf80de00d7
:1050e4004a390200000000000004e000f5ff3a0025
:1050f400be4090001e089000014878001e089000f1
:105104000000e800ce409000014878001e0890009e
:105114000080e800de409000014878001e089000fe
:1051240063004000ee409000014878007e4090000b
:105134008080fb002e089000010878002e08900063
:1051440010007800c800dd000e4890000080fb00cd
:10515400808040002e089000010878004e4890009e
:105164000080fb009e4890000181fb00cf80de00a0
:10517400000040008180480003db20000300400061
:10518400020878004e4890008081fb004e48900051
:105194000080fb00cf80de000000400081804800da
:1051a40002db20000200400010007800c800dd008f
:1051b4002e4890000080fb00008140006118b90077
:1051c400000040008180480003db20000300400011
:1051d400020878004e4890000080fb00cf80de007b
:1051e40002dc20000000410001c8b300014878003f
:1051f4004e4890000080fb00cf80de00000040009d
:105204008180480002db200002004000900078000a
:105214000e089000808f5000030036008e08900026
:10522400010f7800080037004e4890000080fb0012
:10523400cf80de00000040008180480002db2000b7
:1052440002004000100f78009e007800010f9800c3
:105254001e017800fe0090004e4890003e3f020080
:1052640000000000fb0037004e4890000080fb0067
:10527400cf80de00000040008180480002db200077
:1052840002004000100078000000e00052003a00e4
:105294006300470022002000800078004e48900000
:1052a4003e3f0200000000004e4890000080fb00da
:1052b4004200dd000000e8004300dd000010b00003
:1052c400cf80de0002c4b300443a020000000000b4
:1052d400000000004e4890000080fb004200dd000a
:1052e4000000e8004300dd000010b000cf80de00c5
:1052f4004a390200000000000004e000f5ff3a0013
:105304004e4890000080fb00be4090000181fb00ed
:10531400cf80de00000040008180480003db2000d5
:1053240003004000020878004e4890008081fb0092
:105334004e4890000080fb00cf80de00000040005b
:105344008180480002db2000020040001000780049
:10535400c800dd004e4090000080fb00008040004b
:105364000081e9006118b900000040008180480014
:1053740003db200003004000020878004e48900040
:105384000080fb00cf80de000000400081804800e8
:1053940002db20000200400090007800a05e2000a4
:1053a400808f5000050036004e48900049fa0700ef
:1053b40070c12f00f1ff2f00ef0037004e4890001e
:1053c4000080fb00cf80de0002dc200000004100f2
:1053d40001c8b300014878004e4890000080fb00eb
:1053e400cf80de00000040008180480002db200006
:1053f40002004000900078000e089000808f50005a
:10540400030036008e089000010f78000800370072
:105414004e4890000080fb00cf80de00000040007a
:105424008180480002db200002004000100f780059
:105434001e017800fe0090004e4890003e3f02009e
:1054440000000000830037004e4890000080fb00fd
:10545400cf80de00000040008180480002db200095
:1054640002004000100078000000e00050003a0004
:105474006300470062002000800078004e489000de
:105484003e3f0200000000004e4890000080fb00f8
:105494004200dd000000e8004300dd000010b00021
:1054a400cf80de0002c4b300443a020000000000d2
:1054b400000000004e4890000080fb004200dd0028
:1054c4000000e8004300dd000010b000cf80de00e3
:1054d4004a390200000000000004e000f5ff3a0031
:1054e400be4090001e089000014878001e089000fd
:1054f4000000e800ce409000014878001e089000ab
:105504000080e800de409000014878001e0890000a
:1055140063004000ee409000014878004e4890003f
:105524000080fb00fe4090000181fb00cf80de0084
:10553400000040008180480003db2000030040009d
:10554400020878004e4890008081fb004e4890008d
:105554000080fb00cf80de00000040008180480016
:1055640002db20000200400010007800c800dd00cb
:105574000e4890000080fb00008140006118b900d3
:10558400000040008180480003db2000030040004d
:10559400020878004e4890000080fb00cf80de00b7
:1055a40002dc20000000410001c8b300014878007b
:1055b4004e4890000080fb00cf80de0000004000d9
:1055c4008180480002db2000020040009000780047
:1055d4000e089000808f5000030036008e08900063
:1055e400010f7800080037004e4890000080fb004f
:1055f400cf80de00000040008180480002db2000f4
:1056040002004000100f78001e017800fe00900098
:105614004e4890003e3f0200000000000d0037009d
:105624009e0078004e489000ea3f0200000000000f
:105634004e4890000080fb00cf80de000000400058
:105644008180480002db2000020040001e08780030
:10565400000000004e4890000080fb004200dd0086
:105664000000e8004300dd000010b000cf80de0041
:1056740002c4b300443a020000000000000000002d
:105684004e4890000080fb004200dd000000e8006e
:105694004300dd000010b000cf80de004a39020074
:1056a400000000000004e000f5ff3a004e489000be
:1056b4008081fb004e4890000080fb00cf80de001c
:1056c400000040008180480002db2000020040000e
:1056d400100078001e0150006118b900000040005d
:1056e4008180480003db20000300400002087800aa
:1056f4004e4890000080fb00cf80de000000400098
:105704008180480002db2000020040001000780085
:105714000000e0000f0032004e4890008081fb0042
:105724004e4890000080fb00cf80de0002dc2000a9
:105734000000410010407800004178000204a000fd
:105744006118b90003dc20000080410002487800a1
